:0A0000000C9453000C9480000C9443
:10000A0000000C9400000C9400000C9400000C9466
:10001A0000000C9400000C9400000C9400000C9456
:10002A0000000C9400000C9400000C9400000C9446
:10003A0000000C9400000C9400000C9400000C9436
:10004A0000000C9400000C94000048454C4C4F00F2
:10005A00C0F9A4B0999282F880904E6869657420BC
:10006A00646F3A2000204E475559204849454D2093
:10007A002121210080C001002D4E414E00494E46EB
:10008A0000000500600254000A0078025A000200CB
:10009A0084027E0001008B0280000000F894EE27A3
:1000AA00ECBBF1E0FBBFEBBFE5BF8DE0A2E0BB27F5
:1000BA00ED938A95E9F780E098E0A0E6ED93019741
:1000CA00E9F7ECE8F0E085919591009761F0A59148
:1000DA00B59105901590BF01F00105900D92019719
:1000EA00E1F7FB01F0CFEFE5EDBFE8E0EEBFC0E6D8
:1000FA00D2E00C948A01AA93BA93EA93FA93EFB7DF
:10010A00EA93A2E8B2E0ED91FD913196FE93EE9367
:10011A00E991EFBFF991E991B991A9911895AA933B
:10012A00E881E062E7B98BE18A95F1F7369A349B68
:10013A00FECF349AE5B10C947602BA93AA93A881B9
:10014A00B981E0E1F7E20E9407030E94B202E8EEF9
:10015A00F3E00E94B902E4E6F0E00E94B902EAE0A4
:10016A00F0E00E94B902EAE0F0E00E941A03E05DC2
:10017A00AE2F48D137C1EFE0F0E03F01F2010E9413
:10018A00ED026E167F063CF12FD18824992484143F
:10019A009504D4F4D401A60DB71DBB232AF0D401CB
:1001AA00A60DB71D50970CF00BC0E82DE60DEA938B
:1001BA00A0E009D1A0E6B2E0A80DB91DAC9122D108
:1001CA00F40131964F01E3CF0E94C102F301319746
:1001DA003F013196D3CF0895AA24BB24E8E0F0E08A
:1001EA00EA15FB055CF0EA2DA1E00E94F102E8BBEA
:1001FA000E94C102F50131965F01F0CF0895AA2449
:10020A00BB24E8E0F0E0EA15FB055CF0EA2DA0E883
:10021A000E94F902E8BB0E94C102F50131965F0112
:10022A00F0CF0895CC24DD24E9E0F0E0EC15FD05DB
:10023A009CF0A8E7B2E0AC0DBD1DEC91E5BBA8E7C8
:10024A00B2E0AC0DBD1DEC91E095E8BB0E94C10285
:10025A00F60131966F01E8CF0895A0E060DFE093E0
:10026A006602C2D0E0E0EA93A0E0ADD0E091660277
:10027A00F0E0FA93EA93A7E6B2E00E948402A7E6C6
:10028A00B2E0E0D00E94C5020E94CA02E091710267
:10029A00F0917202FA93EA93A3E7B2E00E94840211
:1002AA00A4E6B0E0DED0A3E7B2E0CCD0A091710220
:1002BA00B0917202D2979CF097D00E94C502AFE625
:1002CA00B0E0CFD00E94CA02939AA8ECB0E00E9494
:1002DA00E3029398A8ECB0E00E94E302E7CF089506
:1002EA00E0E0E0938202E0938302E2BFE2B7EE34F9
:1002FA00E8F30E94C502A0918202B0918302E4E66B
:10030A000E940103DF0119DF0895EFEFE7BBE0E088
:10031A00E8BB8B9A9398EFEFE4BBE5BBE0E0EABB5E
:10032A00ECEFEBBBE0E8E8B9E0E0E0BFE0E2E7B918
:10033A00E4E8E6B9A0E6B2E00E9478022F01E0E420
:10034A00EBBFE3E0E5BFE5E0E3BFA0E19DD0789431
:10035A00CB9902C0C5DFFCCFCD9902C03DDF11C0E9
:10036A00CF9902C05FDF0DC0CC9902C004DF09C07B
:10037A00CA9902C072DF05C0CE9902C040DF01C02F
:10038A0033D0E6CFFFCFAA93E2B3EF70AE2FE88166
:10039A00E07FEA2BE2BB8DE08A95F1F7919A8DE036
:1003AA008A95F1F791988DE08A95F1F79AC0AA9308
:1003BA00A881E9DFE881E295E883A881E4DF85E89E
:1003CA008A95F1F78EC0AA93E881F0E0EC57FD4FC9
:1003DA00E081A981AE0FEBDFE981E0938802E88131
:1003EA00E093890222960895A2E00E94D502ACE029
:1003FA00DEDFA1E00E94D502E0E0E0938902E0930B
:10040A0088020895AA93A881AA3031F0E0918A025D
:10041A00A0918802AE1760F0E0E0EA93A091890209
:10042A00AF5FA0938902CFDFA881AA3009F459C02F
:10043A00E0918802EF5FE0938802AF9AA881B7DF64
:10044A00AF984FC0BA93AA931A93A981BA81ED9132
:10045A00A983BA831E2FE03019F0A12FD3DFF5CF7D
:10046A0010C0BA93AA931A93E981FA813196E98363
:10047A00FA833197E4911E2FE03019F0A12FC2DFE1
:10048A00F3CF188123960895AA93E1B3E06FE1BBF5
:10049A00899AA79A889A9198AF989098E881E09358
:1004AA008A02E058E0938602E881E054E0938702EA
:1004BA00A4E1B0E00E94E3020E94DB020E94DB0298
:1004CA000E94DB02A0E25FDF88EC90E00197F1F77F
:1004DA00A8E26DDFA4E06BDFA5E869DFA6E067DFCD
:1004EA0083DF21960895BA93AA93A991B991EE2729
:1004FA00FF276D91662311F03196FBCF0895BA93C9
:10050A00AA93A991B991E991F99130962AF4E095C3
:10051A00F09531966DE26D93E89480E197E20DD003
:10052A0088EE93E00AD084E6992707D08AE005D0BE
:10053A006E2F10D066276C9308956627E817F9077F
:10054A0020F06395E81BF90BC9F7662311F416F03E
:10055A0008956894605D6D930895E05DAE2F0E94E2
:10056A000702A881B98108950E940703DF01EAE022
:10057A00F0E00E941A03F1CFA4E6B0E00C94E30283
:10058A00E0E0EA93A1E00C94E801A1E00E94940063
:10059A00F0E0EE0FFF1FE0937102F09372020895EC
:1005AA000E94DC01A3E0B0E00C94E302A0E30E9405
:1005BA00C80188EC90E00197F1F70895109639F098
:1005CA0080ED97E00197F1F7A8951197C9F708957B
:1005DA00F195E195F0400895EE230E2EEA2F19F0D9
:1005EA00EE0F0A94E9F70895EE230E2EEA2F19F07A
:1005FA00E6950A94E9F708956E2F6A9FF0016B9FBA
:10060A00F00D08950024112490E1AA0FBB1F001CCD
:10061A00111C0E1A1F0A18F40E0E1F1E01C0A1602B
:10062A009A9599F7FD01D0010895ECDFFD0108952F
:00000001FF
